{
  "_format": "hh-sol-artifact-1",
  "contractName": "Gamosa",
  "sourceName": "contracts/Gamosa.sol",
  "abi": [
    {
      "inputs": [],
      "stateMutability": "nonpayable",
      "type": "constructor"
    },
    {
      "inputs": [
        {
          "internalType": "address",
          "name": "sender",
          "type": "address"
        },
        {
          "internalType": "uint256",
          "name": "tokenId",
          "type": "uint256"
        },
        {
          "internalType": "address",
          "name": "owner",
          "type": "address"
        }
      ],
      "name": "ERC721IncorrectOwner",
      "type": "error"
    },
    {
      "inputs": [
        {
          "internalType": "address",
          "name": "operator",
          "type": "address"
        },
        {
          "internalType": "uint256",
          "name": "tokenId",
          "type": "uint256"
        }
      ],
      "name": "ERC721InsufficientApproval",
      "type": "error"
    },
    {
      "inputs": [
        {
          "internalType": "address",
          "name": "approver",
          "type": "address"
        }
      ],
      "name": "ERC721InvalidApprover",
      "type": "error"
    },
    {
      "inputs": [
        {
          "internalType": "address",
          "name": "operator",
          "type": "address"
        }
      ],
      "name": "ERC721InvalidOperator",
      "type": "error"
    },
    {
      "inputs": [
        {
          "internalType": "address",
          "name": "owner",
          "type": "address"
        }
      ],
      "name": "ERC721InvalidOwner",
      "type": "error"
    },
    {
      "inputs": [
        {
          "internalType": "address",
          "name": "receiver",
          "type": "address"
        }
      ],
      "name": "ERC721InvalidReceiver",
      "type": "error"
    },
    {
      "inputs": [
        {
          "internalType": "address",
          "name": "sender",
          "type": "address"
        }
      ],
      "name": "ERC721InvalidSender",
      "type": "error"
    },
    {
      "inputs": [
        {
          "internalType": "uint256",
          "name": "tokenId",
          "type": "uint256"
        }
      ],
      "name": "ERC721NonexistentToken",
      "type": "error"
    },
    {
      "inputs": [
        {
          "internalType": "address",
          "name": "owner",
          "type": "address"
        }
      ],
      "name": "OwnableInvalidOwner",
      "type": "error"
    },
    {
      "inputs": [
        {
          "internalType": "address",
          "name": "account",
          "type": "address"
        }
      ],
      "name": "OwnableUnauthorizedAccount",
      "type": "error"
    },
    {
      "anonymous": false,
      "inputs": [
        {
          "indexed": true,
          "internalType": "address",
          "name": "owner",
          "type": "address"
        },
        {
          "indexed": true,
          "internalType": "address",
          "name": "approved",
          "type": "address"
        },
        {
          "indexed": true,
          "internalType": "uint256",
          "name": "tokenId",
          "type": "uint256"
        }
      ],
      "name": "Approval",
      "type": "event"
    },
    {
      "anonymous": false,
      "inputs": [
        {
          "indexed": true,
          "internalType": "address",
          "name": "owner",
          "type": "address"
        },
        {
          "indexed": true,
          "internalType": "address",
          "name": "operator",
          "type": "address"
        },
        {
          "indexed": false,
          "internalType": "bool",
          "name": "approved",
          "type": "bool"
        }
      ],
      "name": "ApprovalForAll",
      "type": "event"
    },
    {
      "anonymous": false,
      "inputs": [
        {
          "indexed": false,
          "internalType": "uint256",
          "name": "_fromTokenId",
          "type": "uint256"
        },
        {
          "indexed": false,
          "internalType": "uint256",
          "name": "_toTokenId",
          "type": "uint256"
        }
      ],
      "name": "BatchMetadataUpdate",
      "type": "event"
    },
    {
      "anonymous": false,
      "inputs": [
        {
          "indexed": false,
          "internalType": "uint256",
          "name": "tokenId",
          "type": "uint256"
        },
        {
          "indexed": false,
          "internalType": "address",
          "name": "owner",
          "type": "address"
        },
        {
          "indexed": false,
          "internalType": "string",
          "name": "gamosaId",
          "type": "string"
        },
        {
          "indexed": false,
          "internalType": "string",
          "name": "qrCode",
          "type": "string"
        }
      ],
      "name": "GamosaMinted",
      "type": "event"
    },
    {
      "anonymous": false,
      "inputs": [
        {
          "indexed": false,
          "internalType": "uint256",
          "name": "_tokenId",
          "type": "uint256"
        }
      ],
      "name": "MetadataUpdate",
      "type": "event"
    },
    {
      "anonymous": false,
      "inputs": [
        {
          "indexed": true,
          "internalType": "address",
          "name": "previousOwner",
          "type": "address"
        },
        {
          "indexed": true,
          "internalType": "address",
          "name": "newOwner",
          "type": "address"
        }
      ],
      "name": "OwnershipTransferred",
      "type": "event"
    },
    {
      "anonymous": false,
      "inputs": [
        {
          "indexed": true,
          "internalType": "address",
          "name": "from",
          "type": "address"
        },
        {
          "indexed": true,
          "internalType": "address",
          "name": "to",
          "type": "address"
        },
        {
          "indexed": true,
          "internalType": "uint256",
          "name": "tokenId",
          "type": "uint256"
        }
      ],
      "name": "Transfer",
      "type": "event"
    },
    {
      "inputs": [
        {
          "internalType": "address",
          "name": "to",
          "type": "address"
        },
        {
          "internalType": "uint256",
          "name": "tokenId",
          "type": "uint256"
        }
      ],
      "name": "approve",
      "outputs": [],
      "stateMutability": "nonpayable",
      "type": "function"
    },
    {
      "inputs": [
        {
          "internalType": "address",
          "name": "owner",
          "type": "address"
        }
      ],
      "name": "balanceOf",
      "outputs": [
        {
          "internalType": "uint256",
          "name": "",
          "type": "uint256"
        }
      ],
      "stateMutability": "view",
      "type": "function"
    },
    {
      "inputs": [
        {
          "internalType": "string[]",
          "name": "qrCodes",
          "type": "string[]"
        },
        {
          "internalType": "string[]",
          "name": "gamosaIds",
          "type": "string[]"
        }
      ],
      "name": "batchRegisterQRCodes",
      "outputs": [],
      "stateMutability": "nonpayable",
      "type": "function"
    },
    {
      "inputs": [
        {
          "internalType": "string",
          "name": "",
          "type": "string"
        }
      ],
      "name": "gamosaClaimed",
      "outputs": [
        {
          "internalType": "bool",
          "name": "",
          "type": "bool"
        }
      ],
      "stateMutability": "view",
      "type": "function"
    },
    {
      "inputs": [
        {
          "internalType": "uint256",
          "name": "tokenId",
          "type": "uint256"
        }
      ],
      "name": "getApproved",
      "outputs": [
        {
          "internalType": "address",
          "name": "",
          "type": "address"
        }
      ],
      "stateMutability": "view",
      "type": "function"
    },
    {
      "inputs": [
        {
          "internalType": "string",
          "name": "gamosaId",
          "type": "string"
        }
      ],
      "name": "getGamosaClaimed",
      "outputs": [
        {
          "internalType": "bool",
          "name": "",
          "type": "bool"
        }
      ],
      "stateMutability": "view",
      "type": "function"
    },
    {
      "inputs": [
        {
          "internalType": "uint256",
          "name": "tokenId",
          "type": "uint256"
        }
      ],
      "name": "getGamosaIdByTokenId",
      "outputs": [
        {
          "internalType": "string",
          "name": "",
          "type": "string"
        }
      ],
      "stateMutability": "view",
      "type": "function"
    },
    {
      "inputs": [
        {
          "internalType": "string",
          "name": "gamosaId",
          "type": "string"
        }
      ],
      "name": "getQRCode",
      "outputs": [
        {
          "internalType": "string",
          "name": "",
          "type": "string"
        }
      ],
      "stateMutability": "view",
      "type": "function"
    },
    {
      "inputs": [
        {
          "internalType": "uint256",
          "name": "tokenId",
          "type": "uint256"
        }
      ],
      "name": "getTokenFrozenStatus",
      "outputs": [
        {
          "internalType": "bool",
          "name": "",
          "type": "bool"
        }
      ],
      "stateMutability": "view",
      "type": "function"
    },
    {
      "inputs": [
        {
          "internalType": "address",
          "name": "owner",
          "type": "address"
        },
        {
          "internalType": "address",
          "name": "operator",
          "type": "address"
        }
      ],
      "name": "isApprovedForAll",
      "outputs": [
        {
          "internalType": "bool",
          "name": "",
          "type": "bool"
        }
      ],
      "stateMutability": "view",
      "type": "function"
    },
    {
      "inputs": [
        {
          "internalType": "address",
          "name": "recipientAddress",
          "type": "address"
        },
        {
          "internalType": "string",
          "name": "qrCode",
          "type": "string"
        },
        {
          "internalType": "string",
          "name": "metadataURI",
          "type": "string"
        }
      ],
      "name": "mintWithQRCode",
      "outputs": [],
      "stateMutability": "nonpayable",
      "type": "function"
    },
    {
      "inputs": [],
      "name": "name",
      "outputs": [
        {
          "internalType": "string",
          "name": "",
          "type": "string"
        }
      ],
      "stateMutability": "view",
      "type": "function"
    },
    {
      "inputs": [],
      "name": "owner",
      "outputs": [
        {
          "internalType": "address",
          "name": "",
          "type": "address"
        }
      ],
      "stateMutability": "view",
      "type": "function"
    },
    {
      "inputs": [
        {
          "internalType": "uint256",
          "name": "tokenId",
          "type": "uint256"
        }
      ],
      "name": "ownerOf",
      "outputs": [
        {
          "internalType": "address",
          "name": "",
          "type": "address"
        }
      ],
      "stateMutability": "view",
      "type": "function"
    },
    {
      "inputs": [
        {
          "internalType": "string",
          "name": "",
          "type": "string"
        }
      ],
      "name": "qrCodeToGamosaId",
      "outputs": [
        {
          "internalType": "string",
          "name": "",
          "type": "string"
        }
      ],
      "stateMutability": "view",
      "type": "function"
    },
    {
      "inputs": [
        {
          "internalType": "string",
          "name": "qrCode",
          "type": "string"
        },
        {
          "internalType": "string",
          "name": "gamosaId",
          "type": "string"
        }
      ],
      "name": "registerQRCode",
      "outputs": [],
      "stateMutability": "nonpayable",
      "type": "function"
    },
    {
      "inputs": [],
      "name": "renounceOwnership",
      "outputs": [],
      "stateMutability": "nonpayable",
      "type": "function"
    },
    {
      "inputs": [
        {
          "internalType": "address",
          "name": "from",
          "type": "address"
        },
        {
          "internalType": "address",
          "name": "to",
          "type": "address"
        },
        {
          "internalType": "uint256",
          "name": "tokenId",
          "type": "uint256"
        }
      ],
      "name": "safeTransferFrom",
      "outputs": [],
      "stateMutability": "nonpayable",
      "type": "function"
    },
    {
      "inputs": [
        {
          "internalType": "address",
          "name": "from",
          "type": "address"
        },
        {
          "internalType": "address",
          "name": "to",
          "type": "address"
        },
        {
          "internalType": "uint256",
          "name": "tokenId",
          "type": "uint256"
        },
        {
          "internalType": "bytes",
          "name": "data",
          "type": "bytes"
        }
      ],
      "name": "safeTransferFrom",
      "outputs": [],
      "stateMutability": "nonpayable",
      "type": "function"
    },
    {
      "inputs": [
        {
          "internalType": "address",
          "name": "operator",
          "type": "address"
        },
        {
          "internalType": "bool",
          "name": "approved",
          "type": "bool"
        }
      ],
      "name": "setApprovalForAll",
      "outputs": [],
      "stateMutability": "nonpayable",
      "type": "function"
    },
    {
      "inputs": [
        {
          "internalType": "bytes4",
          "name": "interfaceId",
          "type": "bytes4"
        }
      ],
      "name": "supportsInterface",
      "outputs": [
        {
          "internalType": "bool",
          "name": "",
          "type": "bool"
        }
      ],
      "stateMutability": "view",
      "type": "function"
    },
    {
      "inputs": [],
      "name": "symbol",
      "outputs": [
        {
          "internalType": "string",
          "name": "",
          "type": "string"
        }
      ],
      "stateMutability": "view",
      "type": "function"
    },
    {
      "inputs": [
        {
          "internalType": "uint256",
          "name": "",
          "type": "uint256"
        }
      ],
      "name": "tokenFrozen",
      "outputs": [
        {
          "internalType": "bool",
          "name": "",
          "type": "bool"
        }
      ],
      "stateMutability": "view",
      "type": "function"
    },
    {
      "inputs": [
        {
          "internalType": "uint256",
          "name": "",
          "type": "uint256"
        }
      ],
      "name": "tokenToGamosaId",
      "outputs": [
        {
          "internalType": "string",
          "name": "",
          "type": "string"
        }
      ],
      "stateMutability": "view",
      "type": "function"
    },
    {
      "inputs": [
        {
          "internalType": "uint256",
          "name": "tokenId",
          "type": "uint256"
        }
      ],
      "name": "tokenURI",
      "outputs": [
        {
          "internalType": "string",
          "name": "",
          "type": "string"
        }
      ],
      "stateMutability": "view",
      "type": "function"
    },
    {
      "inputs": [
        {
          "internalType": "address",
          "name": "from",
          "type": "address"
        },
        {
          "internalType": "address",
          "name": "to",
          "type": "address"
        },
        {
          "internalType": "uint256",
          "name": "tokenId",
          "type": "uint256"
        }
      ],
      "name": "transferFrom",
      "outputs": [],
      "stateMutability": "nonpayable",
      "type": "function"
    },
    {
      "inputs": [
        {
          "internalType": "address",
          "name": "newOwner",
          "type": "address"
        }
      ],
      "name": "transferOwnership",
      "outputs": [],
      "stateMutability": "nonpayable",
      "type": "function"
    }
  ],
  "bytecode": "0x60806040523480156200001157600080fd5b50336040518060400160405280600d81526020017f47616d6f736120426972696e61000000000000000000000000000000000000008152506040518060400160405280600381526020017f42524e000000000000000000000000000000000000000000000000000000000081525081600090816200009091906200047a565b508060019081620000a291906200047a565b505050600073ffffffffffffffffffffffffffffffffffffffff168173ffffffffffffffffffffffffffffffffffffffff16036200011a5760006040517f1e4fbdf7000000000000000000000000000000000000000000000000000000008152600401620001119190620005a6565b60405180910390fd5b6200012b816200013a60201b60201c565b506000600881905550620005c3565b6000600760009054906101000a900473ffffffffffffffffffffffffffffffffffffffff16905081600760006101000a81548173ffffffffffffffffffffffffffffffffffffffff021916908373ffffffffffffffffffffffffffffffffffffffff1602179055508173ffffffffffffffffffffffffffffffffffffffff168173ffffffffffffffffffffffffffffffffffffffff167f8be0079c531659141344cd1fd0a4f28419497f9722a3daafe3b4186f6b6457e060405160405180910390a35050565b600081519050919050565b7f4e487b7100000000000000000000000000000000000000000000000000000000600052604160045260246000fd5b7f4e487b7100000000000000000000000000000000000000000000000000000000600052602260045260246000fd5b600060028204905060018216806200028257607f821691505b6020821081036200029857620002976200023a565b5b50919050565b60008190508160005260206000209050919050565b60006020601f8301049050919050565b600082821b905092915050565b600060088302620003027fffffffffffffffffffffffffffffffffffffffffffffffffffffffffffffffff82620002c3565b6200030e8683620002c3565b95508019841693508086168417925050509392505050565b6000819050919050565b6000819050919050565b60006200035b620003556200034f8462000326565b62000330565b62000326565b9050919050565b6000819050919050565b62000377836200033a565b6200038f620003868262000362565b848454620002d0565b825550505050565b600090565b620003a662000397565b620003b38184846200036c565b505050565b5b81811015620003db57620003cf6000826200039c565b600181019050620003b9565b5050565b601f8211156200042a57620003f4816200029e565b620003ff84620002b3565b810160208510156200040f578190505b620004276200041e85620002b3565b830182620003b8565b50505b505050565b600082821c905092915050565b60006200044f600019846008026200042f565b1980831691505092915050565b60006200046a83836200043c565b9150826002028217905092915050565b620004858262000200565b67ffffffffffffffff811115620004a157620004a06200020b565b5b620004ad825462000269565b620004ba828285620003df565b600060209050601f831160018114620004f25760008415620004dd578287015190505b620004e985826200045c565b86555062000559565b601f19841662000502866200029e565b60005b828110156200052c5784890151825560018201915060208501945060208101905062000505565b868310156200054c578489015162000548601f8916826200043c565b8355505b6001600288020188555050505b505050505050565b600073ffffffffffffffffffffffffffffffffffffffff82169050919050565b60006200058e8262000561565b9050919050565b620005a08162000581565b82525050565b6000602082019050620005bd600083018462000595565b92915050565b61339880620005d36000396000f3fe608060405234801561001057600080fd5b50600436106101a95760003560e01c806370a08231116100f9578063c1e3e67911610097578063df3d607611610071578063df3d607614610516578063e985e9c514610546578063f2db851814610576578063f2fde38b14610592576101a9565b8063c1e3e67914610486578063c87b56dd146104b6578063ca28a0d0146104e6576101a9565b80638da5cb5b116100d35780638da5cb5b1461041257806395d89b4114610430578063a22cb4651461044e578063b88d4fde1461046a576101a9565b806370a08231146103a8578063715018a6146103d8578063866a285c146103e2576101a9565b806336edc04311610166578063513f99e711610140578063513f99e7146102fc57806356752a881461032c5780635ae9a7bc1461035c5780636352211e14610378576101a9565b806336edc043146102945780633efcdc46146102b057806342842e0e146102e0576101a9565b806301ffc9a7146101ae57806306fdde03146101de578063081812fc146101fc578063095ea7b31461022c5780631c91aafe1461024857806323b872dd14610278575b600080fd5b6101c860048036038101906101c3919061236d565b6105ae565b6040516101d591906123b5565b60405180910390f35b6101e661060f565b6040516101f39190612460565b60405180910390f35b610216600480360381019061021191906124b8565b6106a1565b6040516102239190612526565b60405180910390f35b6102466004803603810190610241919061256d565b6106bd565b005b610262600480360381019061025d91906126e2565b6106d3565b60405161026f9190612460565b60405180910390f35b610292600480360381019061028d919061272b565b610783565b005b6102ae60048036038101906102a9919061277e565b610885565b005b6102ca60048036038101906102c591906124b8565b610ab1565b6040516102d79190612460565b60405180910390f35b6102fa60048036038101906102f5919061272b565b610b51565b005b610316600480360381019061031191906124b8565b610b71565b60405161032391906123b5565b60405180910390f35b610346600480360381019061034191906126e2565b610b91565b60405161035391906123b5565b60405180910390f35b61037660048036038101906103719190612809565b610bc6565b005b610392600480360381019061038d91906124b8565b610c6b565b60405161039f9190612526565b60405180910390f35b6103c260048036038101906103bd9190612881565b610c7d565b6040516103cf91906128bd565b60405180910390f35b6103e0610d37565b005b6103fc60048036038101906103f791906126e2565b610d4b565b60405161040991906123b5565b60405180910390f35b61041a610d81565b6040516104279190612526565b60405180910390f35b610438610dab565b6040516104459190612460565b60405180910390f35b61046860048036038101906104639190612904565b610e3d565b005b610484600480360381019061047f91906129e5565b610e53565b005b6104a0600480360381019061049b91906126e2565b610e78565b6040516104ad9190612460565b60405180910390f35b6104d060048036038101906104cb91906124b8565b610f2e565b6040516104dd9190612460565b60405180910390f35b61050060048036038101906104fb91906124b8565b611041565b60405161050d91906123b5565b60405180910390f35b610530600480360381019061052b91906124b8565b61106b565b60405161053d9190612460565b60405180910390f35b610560600480360381019061055b9190612a68565b611110565b60405161056d91906123b5565b60405180910390f35b610590600480360381019061058b9190612b8e565b6111a4565b005b6105ac60048036038101906105a79190612881565b61124c565b005b6000634906490660e01b7bffffffffffffffffffffffffffffffffffffffffffffffffffffffff1916827bffffffffffffffffffffffffffffffffffffffffffffffffffffffff191614806106085750610607826112d2565b5b9050919050565b60606000805461061e90612c35565b80601f016020809104026020016040519081016040528092919081815260200182805461064a90612c35565b80156106975780601f1061066c57610100808354040283529160200191610697565b820191906000526020600020905b81548152906001019060200180831161067a57829003601f168201915b5050505050905090565b60006106ac826113b4565b506106b68261143c565b9050919050565b6106cf82826106ca611479565b611481565b5050565b6060600a826040516106e59190612ca2565b908152602001604051809103902080546106fe90612c35565b80601f016020809104026020016040519081016040528092919081815260200182805461072a90612c35565b80156107775780601f1061074c57610100808354040283529160200191610777565b820191906000526020600020905b81548152906001019060200180831161075a57829003601f168201915b50505050509050919050565b600073ffffffffffffffffffffffffffffffffffffffff168273ffffffffffffffffffffffffffffffffffffffff16036107f55760006040517f64a0ae920000000000000000000000000000000000000000000000000000000081526004016107ec9190612526565b60405180910390fd5b60006108098383610804611479565b611493565b90508373ffffffffffffffffffffffffffffffffffffffff168173ffffffffffffffffffffffffffffffffffffffff161461087f578382826040517f64283d7b00000000000000000000000000000000000000000000000000000000815260040161087693929190612cb9565b60405180910390fd5b50505050565b6000600a836040516108979190612ca2565b908152602001604051809103902080546108b090612c35565b80601f01602080910402602001604051908101604052809291908181526020018280546108dc90612c35565b80156109295780601f106108fe57610100808354040283529160200191610929565b820191906000526020600020905b81548152906001019060200180831161090c57829003601f168201915b505050505090506000815111610974576040517f08c379a000000000000000000000000000000000000000000000000000000000815260040161096b90612d3c565b60405180910390fd5b6009816040516109849190612ca2565b908152602001604051809103902060009054906101000a900460ff16156109e0576040517f08c379a00000000000000000000000000000000000000000000000000000000081526004016109d790612da8565b60405180910390fd5b6001600860008282546109f39190612df7565b9250508190555060006008549050610a0b85826116ad565b610a1581846117a6565b6001600983604051610a279190612ca2565b908152602001604051809103902060006101000a81548160ff02191690831515021790555081600b60008381526020019081526020016000209081610a6c9190612fd7565b507f7df6e73d2a51c2a54a5bd6a4141448d711cb7d86bdfd664cf868007906bbf66a81338487604051610aa294939291906130a9565b60405180910390a15050505050565b600b6020528060005260406000206000915090508054610ad090612c35565b80601f0160208091040260200160405190810160405280929190818152602001828054610afc90612c35565b8015610b495780601f10610b1e57610100808354040283529160200191610b49565b820191906000526020600020905b815481529060010190602001808311610b2c57829003601f168201915b505050505081565b610b6c83838360405180602001604052806000815250610e53565b505050565b600c6020528060005260406000206000915054906101000a900460ff1681565b6000600982604051610ba39190612ca2565b908152602001604051809103902060009054906101000a900460ff169050919050565b610bce611802565b6000600a83604051610be09190612ca2565b90815260200160405180910390208054610bf990612c35565b905014610c3b576040517f08c379a0000000000000000000000000000000000000000000000000000000008152600401610c3290613148565b60405180910390fd5b80600a83604051610c4c9190612ca2565b90815260200160405180910390209081610c669190612fd7565b505050565b6000610c76826113b4565b9050919050565b60008073ffffffffffffffffffffffffffffffffffffffff168273ffffffffffffffffffffffffffffffffffffffff1603610cf05760006040517f89c62b64000000000000000000000000000000000000000000000000000000008152600401610ce79190612526565b60405180910390fd5b600360008373ffffffffffffffffffffffffffffffffffffffff1673ffffffffffffffffffffffffffffffffffffffff168152602001908152602001600020549050919050565b610d3f611802565b610d496000611889565b565b6009818051602081018201805184825260208301602085012081835280955050505050506000915054906101000a900460ff1681565b6000600760009054906101000a900473ffffffffffffffffffffffffffffffffffffffff16905090565b606060018054610dba90612c35565b80601f0160208091040260200160405190810160405280929190818152602001828054610de690612c35565b8015610e335780601f10610e0857610100808354040283529160200191610e33565b820191906000526020600020905b815481529060010190602001808311610e1657829003601f168201915b5050505050905090565b610e4f610e48611479565b838361194f565b5050565b610e5e848484610783565b610e72610e69611479565b85858585611abe565b50505050565b600a818051602081018201805184825260208301602085012081835280955050505050506000915090508054610ead90612c35565b80601f0160208091040260200160405190810160405280929190818152602001828054610ed990612c35565b8015610f265780601f10610efb57610100808354040283529160200191610f26565b820191906000526020600020905b815481529060010190602001808311610f0957829003601f168201915b505050505081565b6060610f39826113b4565b506000600660008481526020019081526020016000208054610f5a90612c35565b80601f0160208091040260200160405190810160405280929190818152602001828054610f8690612c35565b8015610fd35780601f10610fa857610100808354040283529160200191610fd3565b820191906000526020600020905b815481529060010190602001808311610fb657829003601f168201915b505050505090506000610fe4611c6f565b90506000815103610ff957819250505061103c565b60008251111561102e578082604051602001611016929190613168565b6040516020818303038152906040529250505061103c565b61103784611c86565b925050505b919050565b6000600c600083815260200190815260200160002060009054906101000a900460ff169050919050565b6060600b6000838152602001908152602001600020805461108b90612c35565b80601f01602080910402602001604051908101604052809291908181526020018280546110b790612c35565b80156111045780601f106110d957610100808354040283529160200191611104565b820191906000526020600020905b8154815290600101906020018083116110e757829003601f168201915b50505050509050919050565b6000600560008473ffffffffffffffffffffffffffffffffffffffff1673ffffffffffffffffffffffffffffffffffffffff16815260200190815260200160002060008373ffffffffffffffffffffffffffffffffffffffff1673ffffffffffffffffffffffffffffffffffffffff16815260200190815260200160002060009054906101000a900460ff16905092915050565b6111ac611802565b80518251146111f0576040517f08c379a00000000000000000000000000000000000000000000000000000000081526004016111e7906131d8565b60405180910390fd5b60005b82518110156112475761123a838281518110611212576112116131f8565b5b602002602001015183838151811061122d5761122c6131f8565b5b6020026020010151610bc6565b80806001019150506111f3565b505050565b611254611802565b600073ffffffffffffffffffffffffffffffffffffffff168173ffffffffffffffffffffffffffffffffffffffff16036112c65760006040517f1e4fbdf70000000000000000000000000000000000000000000000000000000081526004016112bd9190612526565b60405180910390fd5b6112cf81611889565b50565b60007f80ac58cd000000000000000000000000000000000000000000000000000000007bffffffffffffffffffffffffffffffffffffffffffffffffffffffff1916827bffffffffffffffffffffffffffffffffffffffffffffffffffffffff1916148061139d57507f5b5e139f000000000000000000000000000000000000000000000000000000007bffffffffffffffffffffffffffffffffffffffffffffffffffffffff1916827bffffffffffffffffffffffffffffffffffffffffffffffffffffffff1916145b806113ad57506113ac82611cef565b5b9050919050565b6000806113c083611d59565b9050600073ffffffffffffffffffffffffffffffffffffffff168173ffffffffffffffffffffffffffffffffffffffff160361143357826040517f7e27328900000000000000000000000000000000000000000000000000000000815260040161142a91906128bd565b60405180910390fd5b80915050919050565b60006004600083815260200190815260200160002060009054906101000a900473ffffffffffffffffffffffffffffffffffffffff169050919050565b600033905090565b61148e8383836001611d96565b505050565b60008061149f84611d59565b9050600073ffffffffffffffffffffffffffffffffffffffff168373ffffffffffffffffffffffffffffffffffffffff16146114e1576114e0818486611f5b565b5b600073ffffffffffffffffffffffffffffffffffffffff168173ffffffffffffffffffffffffffffffffffffffff161461157257611523600085600080611d96565b6001600360008373ffffffffffffffffffffffffffffffffffffffff1673ffffffffffffffffffffffffffffffffffffffff168152602001908152602001600020600082825403925050819055505b600073ffffffffffffffffffffffffffffffffffffffff168573ffffffffffffffffffffffffffffffffffffffff16146115f5576001600360008773ffffffffffffffffffffffffffffffffffffffff1673ffffffffffffffffffffffffffffffffffffffff168152602001908152602001600020600082825401925050819055505b846002600086815260200190815260200160002060006101000a81548173ffffffffffffffffffffffffffffffffffffffff021916908373ffffffffffffffffffffffffffffffffffffffff160217905550838573ffffffffffffffffffffffffffffffffffffffff168273ffffffffffffffffffffffffffffffffffffffff167fddf252ad1be2c89b69c2b068fc378daa952ba7f163c4a11628f55a4df523b3ef60405160405180910390a4809150509392505050565b600073ffffffffffffffffffffffffffffffffffffffff168273ffffffffffffffffffffffffffffffffffffffff160361171f5760006040517f64a0ae920000000000000000000000000000000000000000000000000000000081526004016117169190612526565b60405180910390fd5b600061172d83836000611493565b9050600073ffffffffffffffffffffffffffffffffffffffff168173ffffffffffffffffffffffffffffffffffffffff16146117a15760006040517f73c6ac6e0000000000000000000000000000000000000000000000000000000081526004016117989190612526565b60405180910390fd5b505050565b806006600084815260200190815260200160002090816117c69190612fd7565b507ff8e1a15aba9398e019f0b49df1a4fde98ee17ae345cb5f6b5e2c27f5033e8ce7826040516117f691906128bd565b60405180910390a15050565b61180a611479565b73ffffffffffffffffffffffffffffffffffffffff16611828610d81565b73ffffffffffffffffffffffffffffffffffffffff16146118875761184b611479565b6040517f118cdaa700000000000000000000000000000000000000000000000000000000815260040161187e9190612526565b60405180910390fd5b565b6000600760009054906101000a900473ffffffffffffffffffffffffffffffffffffffff16905081600760006101000a81548173ffffffffffffffffffffffffffffffffffffffff021916908373ffffffffffffffffffffffffffffffffffffffff1602179055508173ffffffffffffffffffffffffffffffffffffffff168173ffffffffffffffffffffffffffffffffffffffff167f8be0079c531659141344cd1fd0a4f28419497f9722a3daafe3b4186f6b6457e060405160405180910390a35050565b600073ffffffffffffffffffffffffffffffffffffffff168273ffffffffffffffffffffffffffffffffffffffff16036119c057816040517f5b08ba180000000000000000000000000000000000000000000000000000000081526004016119b79190612526565b60405180910390fd5b80600560008573ffffffffffffffffffffffffffffffffffffffff1673ffffffffffffffffffffffffffffffffffffffff16815260200190815260200160002060008473ffffffffffffffffffffffffffffffffffffffff1673ffffffffffffffffffffffffffffffffffffffff16815260200190815260200160002060006101000a81548160ff0219169083151502179055508173ffffffffffffffffffffffffffffffffffffffff168373ffffffffffffffffffffffffffffffffffffffff167f17307eab39ab6107e8899845ad3d59bd9653f200f220920489ca2b5937696c3183604051611ab191906123b5565b60405180910390a3505050565b60008373ffffffffffffffffffffffffffffffffffffffff163b1115611c68578273ffffffffffffffffffffffffffffffffffffffff1663150b7a02868685856040518563ffffffff1660e01b8152600401611b1d949392919061327c565b6020604051808303816000875af1925050508015611b5957506040513d601f19601f82011682018060405250810190611b5691906132dd565b60015b611bdd573d8060008114611b89576040519150601f19603f3d011682016040523d82523d6000602084013e611b8e565b606091505b506000815103611bd557836040517f64a0ae92000000000000000000000000000000000000000000000000000000008152600401611bcc9190612526565b60405180910390fd5b805181602001fd5b63150b7a0260e01b7bffffffffffffffffffffffffffffffffffffffffffffffffffffffff1916817bffffffffffffffffffffffffffffffffffffffffffffffffffffffff191614611c6657836040517f64a0ae92000000000000000000000000000000000000000000000000000000008152600401611c5d9190612526565b60405180910390fd5b505b5050505050565b606060405180602001604052806000815250905090565b6060611c91826113b4565b506000611c9c611c6f565b90506000815111611cbc5760405180602001604052806000815250611ce7565b80611cc68461201f565b604051602001611cd7929190613168565b6040516020818303038152906040525b915050919050565b60007f01ffc9a7000000000000000000000000000000000000000000000000000000007bffffffffffffffffffffffffffffffffffffffffffffffffffffffff1916827bffffffffffffffffffffffffffffffffffffffffffffffffffffffff1916149050919050565b60006002600083815260200190815260200160002060009054906101000a900473ffffffffffffffffffffffffffffffffffffffff169050919050565b8080611dcf5750600073ffffffffffffffffffffffffffffffffffffffff168273ffffffffffffffffffffffffffffffffffffffff1614155b15611f03576000611ddf846113b4565b9050600073ffffffffffffffffffffffffffffffffffffffff168373ffffffffffffffffffffffffffffffffffffffff1614158015611e4a57508273ffffffffffffffffffffffffffffffffffffffff168173ffffffffffffffffffffffffffffffffffffffff1614155b8015611e5d5750611e5b8184611110565b155b15611e9f57826040517fa9fbf51f000000000000000000000000000000000000000000000000000000008152600401611e969190612526565b60405180910390fd5b8115611f0157838573ffffffffffffffffffffffffffffffffffffffff168273ffffffffffffffffffffffffffffffffffffffff167f8c5be1e5ebec7d5bd14f71427d1e84f3dd0314c0f7b2291e5b200ac8c7c3b92560405160405180910390a45b505b836004600085815260200190815260200160002060006101000a81548173ffffffffffffffffffffffffffffffffffffffff021916908373ffffffffffffffffffffffffffffffffffffffff16021790555050505050565b611f668383836120ed565b61201a57600073ffffffffffffffffffffffffffffffffffffffff168373ffffffffffffffffffffffffffffffffffffffff1603611fdb57806040517f7e273289000000000000000000000000000000000000000000000000000000008152600401611fd291906128bd565b60405180910390fd5b81816040517f177e802f00000000000000000000000000000000000000000000000000000000815260040161201192919061330a565b60405180910390fd5b505050565b60606000600161202e846121ae565b01905060008167ffffffffffffffff81111561204d5761204c6125b7565b5b6040519080825280601f01601f19166020018201604052801561207f5781602001600182028036833780820191505090505b509050600082602001820190505b6001156120e2578080600190039150507f3031323334353637383961626364656600000000000000000000000000000000600a86061a8153600a85816120d6576120d5613333565b5b0494506000850361208d575b819350505050919050565b60008073ffffffffffffffffffffffffffffffffffffffff168373ffffffffffffffffffffffffffffffffffffffff16141580156121a557508273ffffffffffffffffffffffffffffffffffffffff168473ffffffffffffffffffffffffffffffffffffffff16148061216657506121658484611110565b5b806121a457508273ffffffffffffffffffffffffffffffffffffffff1661218c8361143c565b73ffffffffffffffffffffffffffffffffffffffff16145b5b90509392505050565b600080600090507a184f03e93ff9f4daa797ed6e38ed64bf6a1f010000000000000000831061220c577a184f03e93ff9f4daa797ed6e38ed64bf6a1f010000000000000000838161220257612201613333565b5b0492506040810190505b6d04ee2d6d415b85acef81000000008310612249576d04ee2d6d415b85acef8100000000838161223f5761223e613333565b5b0492506020810190505b662386f26fc10000831061227857662386f26fc10000838161226e5761226d613333565b5b0492506010810190505b6305f5e10083106122a1576305f5e100838161229757612296613333565b5b0492506008810190505b61271083106122c65761271083816122bc576122bb613333565b5b0492506004810190505b606483106122e957606483816122df576122de613333565b5b0492506002810190505b600a83106122f8576001810190505b80915050919050565b6000604051905090565b600080fd5b600080fd5b60007fffffffff0000000000000000000000000000000000000000000000000000000082169050919050565b61234a81612315565b811461235557600080fd5b50565b60008135905061236781612341565b92915050565b6000602082840312156123835761238261230b565b5b600061239184828501612358565b91505092915050565b60008115159050919050565b6123af8161239a565b82525050565b60006020820190506123ca60008301846123a6565b92915050565b600081519050919050565b600082825260208201905092915050565b60005b8381101561240a5780820151818401526020810190506123ef565b60008484015250505050565b6000601f19601f8301169050919050565b6000612432826123d0565b61243c81856123db565b935061244c8185602086016123ec565b61245581612416565b840191505092915050565b6000602082019050818103600083015261247a8184612427565b905092915050565b6000819050919050565b61249581612482565b81146124a057600080fd5b50565b6000813590506124b28161248c565b92915050565b6000602082840312156124ce576124cd61230b565b5b60006124dc848285016124a3565b91505092915050565b600073ffffffffffffffffffffffffffffffffffffffff82169050919050565b6000612510826124e5565b9050919050565b61252081612505565b82525050565b600060208201905061253b6000830184612517565b92915050565b61254a81612505565b811461255557600080fd5b50565b60008135905061256781612541565b92915050565b600080604083850312156125845761258361230b565b5b600061259285828601612558565b92505060206125a3858286016124a3565b9150509250929050565b600080fd5b600080fd5b7f4e487b7100000000000000000000000000000000000000000000000000000000600052604160045260246000fd5b6125ef82612416565b810181811067ffffffffffffffff8211171561260e5761260d6125b7565b5b80604052505050565b6000612621612301565b905061262d82826125e6565b919050565b600067ffffffffffffffff82111561264d5761264c6125b7565b5b61265682612416565b9050602081019050919050565b82818337600083830152505050565b600061268561268084612632565b612617565b9050828152602081018484840111156126a1576126a06125b2565b5b6126ac848285612663565b509392505050565b600082601f8301126126c9576126c86125ad565b5b81356126d9848260208601612672565b91505092915050565b6000602082840312156126f8576126f761230b565b5b600082013567ffffffffffffffff81111561271657612715612310565b5b612722848285016126b4565b91505092915050565b6000806000606084860312156127445761274361230b565b5b600061275286828701612558565b935050602061276386828701612558565b9250506040612774868287016124a3565b9150509250925092565b6000806000606084860312156127975761279661230b565b5b60006127a586828701612558565b935050602084013567ffffffffffffffff8111156127c6576127c5612310565b5b6127d2868287016126b4565b925050604084013567ffffffffffffffff8111156127f3576127f2612310565b5b6127ff868287016126b4565b9150509250925092565b600080604083850312156128205761281f61230b565b5b600083013567ffffffffffffffff81111561283e5761283d612310565b5b61284a858286016126b4565b925050602083013567ffffffffffffffff81111561286b5761286a612310565b5b612877858286016126b4565b9150509250929050565b6000602082840312156128975761289661230b565b5b60006128a584828501612558565b91505092915050565b6128b781612482565b82525050565b60006020820190506128d260008301846128ae565b92915050565b6128e18161239a565b81146128ec57600080fd5b50565b6000813590506128fe816128d8565b92915050565b6000806040838503121561291b5761291a61230b565b5b600061292985828601612558565b925050602061293a858286016128ef565b9150509250929050565b600067ffffffffffffffff82111561295f5761295e6125b7565b5b61296882612416565b9050602081019050919050565b600061298861298384612944565b612617565b9050828152602081018484840111156129a4576129a36125b2565b5b6129af848285612663565b509392505050565b600082601f8301126129cc576129cb6125ad565b5b81356129dc848260208601612975565b91505092915050565b600080600080608085870312156129ff576129fe61230b565b5b6000612a0d87828801612558565b9450506020612a1e87828801612558565b9350506040612a2f878288016124a3565b925050606085013567ffffffffffffffff811115612a5057612a4f612310565b5b612a5c878288016129b7565b91505092959194509250565b60008060408385031215612a7f57612a7e61230b565b5b6000612a8d85828601612558565b9250506020612a9e85828601612558565b9150509250929050565b600067ffffffffffffffff821115612ac357612ac26125b7565b5b602082029050602081019050919050565b600080fd5b6000612aec612ae784612aa8565b612617565b90508083825260208201905060208402830185811115612b0f57612b0e612ad4565b5b835b81811015612b5657803567ffffffffffffffff811115612b3457612b336125ad565b5b808601612b4189826126b4565b85526020850194505050602081019050612b11565b5050509392505050565b600082601f830112612b7557612b746125ad565b5b8135612b85848260208601612ad9565b91505092915050565b60008060408385031215612ba557612ba461230b565b5b600083013567ffffffffffffffff811115612bc357612bc2612310565b5b612bcf85828601612b60565b925050602083013567ffffffffffffffff811115612bf057612bef612310565b5b612bfc85828601612b60565b9150509250929050565b7f4e487b7100000000000000000000000000000000000000000000000000000000600052602260045260246000fd5b60006002820490506001821680612c4d57607f821691505b602082108103612c6057612c5f612c06565b5b50919050565b600081905092915050565b6000612c7c826123d0565b612c868185612c66565b9350612c968185602086016123ec565b80840191505092915050565b6000612cae8284612c71565b915081905092915050565b6000606082019050612cce6000830186612517565b612cdb60208301856128ae565b612ce86040830184612517565b949350505050565b7f496e76616c696420515220636f64650000000000000000000000000000000000600082015250565b6000612d26600f836123db565b9150612d3182612cf0565b602082019050919050565b60006020820190508181036000830152612d5581612d19565b9050919050565b7f47616d6f736120616c726561647920636c61696d656400000000000000000000600082015250565b6000612d926016836123db565b9150612d9d82612d5c565b602082019050919050565b60006020820190508181036000830152612dc181612d85565b9050919050565b7f4e487b7100000000000000000000000000000000000000000000000000000000600052601160045260246000fd5b6000612e0282612482565b9150612e0d83612482565b9250828201905080821115612e2557612e24612dc8565b5b92915050565b60008190508160005260206000209050919050565b60006020601f8301049050919050565b600082821b905092915050565b600060088302612e8d7fffffffffffffffffffffffffffffffffffffffffffffffffffffffffffffffff82612e50565b612e978683612e50565b95508019841693508086168417925050509392505050565b6000819050919050565b6000612ed4612ecf612eca84612482565b612eaf565b612482565b9050919050565b6000819050919050565b612eee83612eb9565b612f02612efa82612edb565b848454612e5d565b825550505050565b600090565b612f17612f0a565b612f22818484612ee5565b505050565b5b81811015612f4657612f3b600082612f0f565b600181019050612f28565b5050565b601f821115612f8b57612f5c81612e2b565b612f6584612e40565b81016020851015612f74578190505b612f88612f8085612e40565b830182612f27565b50505b505050565b600082821c905092915050565b6000612fae60001984600802612f90565b1980831691505092915050565b6000612fc78383612f9d565b9150826002028217905092915050565b612fe0826123d0565b67ffffffffffffffff811115612ff957612ff86125b7565b5b6130038254612c35565b61300e828285612f4a565b600060209050601f831160018114613041576000841561302f578287015190505b6130398582612fbb565b8655506130a1565b601f19841661304f86612e2b565b60005b8281101561307757848901518255600182019150602085019450602081019050613052565b868310156130945784890151613090601f891682612f9d565b8355505b6001600288020188555050505b505050505050565b60006080820190506130be60008301876128ae565b6130cb6020830186612517565b81810360408301526130dd8185612427565b905081810360608301526130f18184612427565b905095945050505050565b7f515220636f646520616c72656164792072656769737465726564000000000000600082015250565b6000613132601a836123db565b915061313d826130fc565b602082019050919050565b6000602082019050818103600083015261316181613125565b9050919050565b60006131748285612c71565b91506131808284612c71565b91508190509392505050565b7f417272617973206d757374206265207468652073616d65206c656e6774680000600082015250565b60006131c2601e836123db565b91506131cd8261318c565b602082019050919050565b600060208201905081810360008301526131f1816131b5565b9050919050565b7f4e487b7100000000000000000000000000000000000000000000000000000000600052603260045260246000fd5b600081519050919050565b600082825260208201905092915050565b600061324e82613227565b6132588185613232565b93506132688185602086016123ec565b61327181612416565b840191505092915050565b60006080820190506132916000830187612517565b61329e6020830186612517565b6132ab60408301856128ae565b81810360608301526132bd8184613243565b905095945050505050565b6000815190506132d781612341565b92915050565b6000602082840312156132f3576132f261230b565b5b6000613301848285016132c8565b91505092915050565b600060408201905061331f6000830185612517565b61332c60208301846128ae565b9392505050565b7f4e487b7100000000000000000000000000000000000000000000000000000000600052601260045260246000fdfea2646970667358221220b483402cc55bc3f4b6dfe31d5b630da99ab11729e8bd649dd007a21762d5031864736f6c63430008160033",
  "linkReferences": {},
  "deployedLinkReferences": {}
}