{
  "_format": "hh-sol-artifact-1",
  "contractName": "Gamosa",
  "sourceName": "contracts/Gamosa.sol",
  "abi": [
    {
      "inputs": [],
      "stateMutability": "nonpayable",
      "type": "constructor"
    },
    {
      "inputs": [
        {
          "internalType": "address",
          "name": "sender",
          "type": "address"
        },
        {
          "internalType": "uint256",
          "name": "tokenId",
          "type": "uint256"
        },
        {
          "internalType": "address",
          "name": "owner",
          "type": "address"
        }
      ],
      "name": "ERC721IncorrectOwner",
      "type": "error"
    },
    {
      "inputs": [
        {
          "internalType": "address",
          "name": "operator",
          "type": "address"
        },
        {
          "internalType": "uint256",
          "name": "tokenId",
          "type": "uint256"
        }
      ],
      "name": "ERC721InsufficientApproval",
      "type": "error"
    },
    {
      "inputs": [
        {
          "internalType": "address",
          "name": "approver",
          "type": "address"
        }
      ],
      "name": "ERC721InvalidApprover",
      "type": "error"
    },
    {
      "inputs": [
        {
          "internalType": "address",
          "name": "operator",
          "type": "address"
        }
      ],
      "name": "ERC721InvalidOperator",
      "type": "error"
    },
    {
      "inputs": [
        {
          "internalType": "address",
          "name": "owner",
          "type": "address"
        }
      ],
      "name": "ERC721InvalidOwner",
      "type": "error"
    },
    {
      "inputs": [
        {
          "internalType": "address",
          "name": "receiver",
          "type": "address"
        }
      ],
      "name": "ERC721InvalidReceiver",
      "type": "error"
    },
    {
      "inputs": [
        {
          "internalType": "address",
          "name": "sender",
          "type": "address"
        }
      ],
      "name": "ERC721InvalidSender",
      "type": "error"
    },
    {
      "inputs": [
        {
          "internalType": "uint256",
          "name": "tokenId",
          "type": "uint256"
        }
      ],
      "name": "ERC721NonexistentToken",
      "type": "error"
    },
    {
      "inputs": [
        {
          "internalType": "address",
          "name": "owner",
          "type": "address"
        }
      ],
      "name": "OwnableInvalidOwner",
      "type": "error"
    },
    {
      "inputs": [
        {
          "internalType": "address",
          "name": "account",
          "type": "address"
        }
      ],
      "name": "OwnableUnauthorizedAccount",
      "type": "error"
    },
    {
      "anonymous": false,
      "inputs": [
        {
          "indexed": true,
          "internalType": "address",
          "name": "owner",
          "type": "address"
        },
        {
          "indexed": true,
          "internalType": "address",
          "name": "approved",
          "type": "address"
        },
        {
          "indexed": true,
          "internalType": "uint256",
          "name": "tokenId",
          "type": "uint256"
        }
      ],
      "name": "Approval",
      "type": "event"
    },
    {
      "anonymous": false,
      "inputs": [
        {
          "indexed": true,
          "internalType": "address",
          "name": "owner",
          "type": "address"
        },
        {
          "indexed": true,
          "internalType": "address",
          "name": "operator",
          "type": "address"
        },
        {
          "indexed": false,
          "internalType": "bool",
          "name": "approved",
          "type": "bool"
        }
      ],
      "name": "ApprovalForAll",
      "type": "event"
    },
    {
      "anonymous": false,
      "inputs": [
        {
          "indexed": false,
          "internalType": "uint256",
          "name": "_fromTokenId",
          "type": "uint256"
        },
        {
          "indexed": false,
          "internalType": "uint256",
          "name": "_toTokenId",
          "type": "uint256"
        }
      ],
      "name": "BatchMetadataUpdate",
      "type": "event"
    },
    {
      "anonymous": false,
      "inputs": [
        {
          "indexed": false,
          "internalType": "uint256",
          "name": "tokenId",
          "type": "uint256"
        },
        {
          "indexed": false,
          "internalType": "address",
          "name": "owner",
          "type": "address"
        },
        {
          "indexed": false,
          "internalType": "string",
          "name": "gamosaId",
          "type": "string"
        },
        {
          "indexed": false,
          "internalType": "string",
          "name": "qrCode",
          "type": "string"
        }
      ],
      "name": "GamosaMinted",
      "type": "event"
    },
    {
      "anonymous": false,
      "inputs": [
        {
          "indexed": false,
          "internalType": "uint256",
          "name": "_tokenId",
          "type": "uint256"
        }
      ],
      "name": "MetadataUpdate",
      "type": "event"
    },
    {
      "anonymous": false,
      "inputs": [
        {
          "indexed": true,
          "internalType": "address",
          "name": "previousOwner",
          "type": "address"
        },
        {
          "indexed": true,
          "internalType": "address",
          "name": "newOwner",
          "type": "address"
        }
      ],
      "name": "OwnershipTransferred",
      "type": "event"
    },
    {
      "anonymous": false,
      "inputs": [
        {
          "indexed": true,
          "internalType": "address",
          "name": "from",
          "type": "address"
        },
        {
          "indexed": true,
          "internalType": "address",
          "name": "to",
          "type": "address"
        },
        {
          "indexed": true,
          "internalType": "uint256",
          "name": "tokenId",
          "type": "uint256"
        }
      ],
      "name": "Transfer",
      "type": "event"
    },
    {
      "inputs": [
        {
          "internalType": "address",
          "name": "to",
          "type": "address"
        },
        {
          "internalType": "uint256",
          "name": "tokenId",
          "type": "uint256"
        }
      ],
      "name": "approve",
      "outputs": [],
      "stateMutability": "nonpayable",
      "type": "function"
    },
    {
      "inputs": [
        {
          "internalType": "address",
          "name": "owner",
          "type": "address"
        }
      ],
      "name": "balanceOf",
      "outputs": [
        {
          "internalType": "uint256",
          "name": "",
          "type": "uint256"
        }
      ],
      "stateMutability": "view",
      "type": "function"
    },
    {
      "inputs": [
        {
          "internalType": "string[]",
          "name": "qrCodes",
          "type": "string[]"
        },
        {
          "internalType": "string[]",
          "name": "gamosaIds",
          "type": "string[]"
        }
      ],
      "name": "batchRegisterQRCodes",
      "outputs": [],
      "stateMutability": "nonpayable",
      "type": "function"
    },
    {
      "inputs": [
        {
          "internalType": "string",
          "name": "",
          "type": "string"
        }
      ],
      "name": "gamosaClaimed",
      "outputs": [
        {
          "internalType": "bool",
          "name": "",
          "type": "bool"
        }
      ],
      "stateMutability": "view",
      "type": "function"
    },
    {
      "inputs": [
        {
          "internalType": "string",
          "name": "",
          "type": "string"
        }
      ],
      "name": "gamosaToTokenId",
      "outputs": [
        {
          "internalType": "uint256",
          "name": "",
          "type": "uint256"
        }
      ],
      "stateMutability": "view",
      "type": "function"
    },
    {
      "inputs": [
        {
          "internalType": "uint256",
          "name": "tokenId",
          "type": "uint256"
        }
      ],
      "name": "getApproved",
      "outputs": [
        {
          "internalType": "address",
          "name": "",
          "type": "address"
        }
      ],
      "stateMutability": "view",
      "type": "function"
    },
    {
      "inputs": [
        {
          "internalType": "string",
          "name": "gamosaId",
          "type": "string"
        }
      ],
      "name": "getGamosaClaimed",
      "outputs": [
        {
          "internalType": "bool",
          "name": "",
          "type": "bool"
        }
      ],
      "stateMutability": "view",
      "type": "function"
    },
    {
      "inputs": [
        {
          "internalType": "uint256",
          "name": "tokenId",
          "type": "uint256"
        }
      ],
      "name": "getGamosaIdByTokenId",
      "outputs": [
        {
          "internalType": "string",
          "name": "",
          "type": "string"
        }
      ],
      "stateMutability": "view",
      "type": "function"
    },
    {
      "inputs": [
        {
          "internalType": "string",
          "name": "gamosaId",
          "type": "string"
        }
      ],
      "name": "getQRCode",
      "outputs": [
        {
          "internalType": "string",
          "name": "",
          "type": "string"
        }
      ],
      "stateMutability": "view",
      "type": "function"
    },
    {
      "inputs": [
        {
          "internalType": "uint256",
          "name": "tokenId",
          "type": "uint256"
        }
      ],
      "name": "getTokenFrozenStatus",
      "outputs": [
        {
          "internalType": "bool",
          "name": "",
          "type": "bool"
        }
      ],
      "stateMutability": "view",
      "type": "function"
    },
    {
      "inputs": [
        {
          "internalType": "string",
          "name": "gamosaId",
          "type": "string"
        }
      ],
      "name": "getTokenId",
      "outputs": [
        {
          "internalType": "uint256",
          "name": "",
          "type": "uint256"
        }
      ],
      "stateMutability": "view",
      "type": "function"
    },
    {
      "inputs": [
        {
          "internalType": "uint256",
          "name": "tokenId",
          "type": "uint256"
        }
      ],
      "name": "getTokenOwner",
      "outputs": [
        {
          "internalType": "address",
          "name": "",
          "type": "address"
        }
      ],
      "stateMutability": "view",
      "type": "function"
    },
    {
      "inputs": [
        {
          "internalType": "address",
          "name": "owner",
          "type": "address"
        },
        {
          "internalType": "address",
          "name": "operator",
          "type": "address"
        }
      ],
      "name": "isApprovedForAll",
      "outputs": [
        {
          "internalType": "bool",
          "name": "",
          "type": "bool"
        }
      ],
      "stateMutability": "view",
      "type": "function"
    },
    {
      "inputs": [
        {
          "internalType": "address",
          "name": "recipientAddress",
          "type": "address"
        },
        {
          "internalType": "string",
          "name": "qrCode",
          "type": "string"
        },
        {
          "internalType": "string",
          "name": "metadataURI",
          "type": "string"
        }
      ],
      "name": "mintWithQRCode",
      "outputs": [],
      "stateMutability": "nonpayable",
      "type": "function"
    },
    {
      "inputs": [],
      "name": "name",
      "outputs": [
        {
          "internalType": "string",
          "name": "",
          "type": "string"
        }
      ],
      "stateMutability": "view",
      "type": "function"
    },
    {
      "inputs": [],
      "name": "owner",
      "outputs": [
        {
          "internalType": "address",
          "name": "",
          "type": "address"
        }
      ],
      "stateMutability": "view",
      "type": "function"
    },
    {
      "inputs": [
        {
          "internalType": "uint256",
          "name": "tokenId",
          "type": "uint256"
        }
      ],
      "name": "ownerOf",
      "outputs": [
        {
          "internalType": "address",
          "name": "",
          "type": "address"
        }
      ],
      "stateMutability": "view",
      "type": "function"
    },
    {
      "inputs": [
        {
          "internalType": "string",
          "name": "",
          "type": "string"
        }
      ],
      "name": "qrCodeToGamosaId",
      "outputs": [
        {
          "internalType": "string",
          "name": "",
          "type": "string"
        }
      ],
      "stateMutability": "view",
      "type": "function"
    },
    {
      "inputs": [
        {
          "internalType": "string",
          "name": "qrCode",
          "type": "string"
        },
        {
          "internalType": "string",
          "name": "gamosaId",
          "type": "string"
        }
      ],
      "name": "registerQRCode",
      "outputs": [],
      "stateMutability": "nonpayable",
      "type": "function"
    },
    {
      "inputs": [],
      "name": "renounceOwnership",
      "outputs": [],
      "stateMutability": "nonpayable",
      "type": "function"
    },
    {
      "inputs": [
        {
          "internalType": "address",
          "name": "from",
          "type": "address"
        },
        {
          "internalType": "address",
          "name": "to",
          "type": "address"
        },
        {
          "internalType": "uint256",
          "name": "tokenId",
          "type": "uint256"
        }
      ],
      "name": "safeTransferFrom",
      "outputs": [],
      "stateMutability": "nonpayable",
      "type": "function"
    },
    {
      "inputs": [
        {
          "internalType": "address",
          "name": "from",
          "type": "address"
        },
        {
          "internalType": "address",
          "name": "to",
          "type": "address"
        },
        {
          "internalType": "uint256",
          "name": "tokenId",
          "type": "uint256"
        },
        {
          "internalType": "bytes",
          "name": "data",
          "type": "bytes"
        }
      ],
      "name": "safeTransferFrom",
      "outputs": [],
      "stateMutability": "nonpayable",
      "type": "function"
    },
    {
      "inputs": [
        {
          "internalType": "address",
          "name": "operator",
          "type": "address"
        },
        {
          "internalType": "bool",
          "name": "approved",
          "type": "bool"
        }
      ],
      "name": "setApprovalForAll",
      "outputs": [],
      "stateMutability": "nonpayable",
      "type": "function"
    },
    {
      "inputs": [
        {
          "internalType": "bytes4",
          "name": "interfaceId",
          "type": "bytes4"
        }
      ],
      "name": "supportsInterface",
      "outputs": [
        {
          "internalType": "bool",
          "name": "",
          "type": "bool"
        }
      ],
      "stateMutability": "view",
      "type": "function"
    },
    {
      "inputs": [],
      "name": "symbol",
      "outputs": [
        {
          "internalType": "string",
          "name": "",
          "type": "string"
        }
      ],
      "stateMutability": "view",
      "type": "function"
    },
    {
      "inputs": [
        {
          "internalType": "uint256",
          "name": "",
          "type": "uint256"
        }
      ],
      "name": "tokenFrozen",
      "outputs": [
        {
          "internalType": "bool",
          "name": "",
          "type": "bool"
        }
      ],
      "stateMutability": "view",
      "type": "function"
    },
    {
      "inputs": [
        {
          "internalType": "uint256",
          "name": "",
          "type": "uint256"
        }
      ],
      "name": "tokenIdToOwner",
      "outputs": [
        {
          "internalType": "address",
          "name": "",
          "type": "address"
        }
      ],
      "stateMutability": "view",
      "type": "function"
    },
    {
      "inputs": [
        {
          "internalType": "uint256",
          "name": "",
          "type": "uint256"
        }
      ],
      "name": "tokenToGamosaId",
      "outputs": [
        {
          "internalType": "string",
          "name": "",
          "type": "string"
        }
      ],
      "stateMutability": "view",
      "type": "function"
    },
    {
      "inputs": [
        {
          "internalType": "uint256",
          "name": "tokenId",
          "type": "uint256"
        }
      ],
      "name": "tokenURI",
      "outputs": [
        {
          "internalType": "string",
          "name": "",
          "type": "string"
        }
      ],
      "stateMutability": "view",
      "type": "function"
    },
    {
      "inputs": [
        {
          "internalType": "address",
          "name": "from",
          "type": "address"
        },
        {
          "internalType": "address",
          "name": "to",
          "type": "address"
        },
        {
          "internalType": "uint256",
          "name": "tokenId",
          "type": "uint256"
        }
      ],
      "name": "transferFrom",
      "outputs": [],
      "stateMutability": "nonpayable",
      "type": "function"
    },
    {
      "inputs": [
        {
          "internalType": "address",
          "name": "newOwner",
          "type": "address"
        }
      ],
      "name": "transferOwnership",
      "outputs": [],
      "stateMutability": "nonpayable",
      "type": "function"
    }
  ],
  "bytecode": "0x60806040523480156200001157600080fd5b50336040518060400160405280600d81526020017f47616d6f736120426972696e61000000000000000000000000000000000000008152506040518060400160405280600381526020017f42524e000000000000000000000000000000000000000000000000000000000081525081600090816200009091906200047a565b508060019081620000a291906200047a565b505050600073ffffffffffffffffffffffffffffffffffffffff168173ffffffffffffffffffffffffffffffffffffffff16036200011a5760006040517f1e4fbdf7000000000000000000000000000000000000000000000000000000008152600401620001119190620005a6565b60405180910390fd5b6200012b816200013a60201b60201c565b506000600881905550620005c3565b6000600760009054906101000a900473ffffffffffffffffffffffffffffffffffffffff16905081600760006101000a81548173ffffffffffffffffffffffffffffffffffffffff021916908373ffffffffffffffffffffffffffffffffffffffff1602179055508173ffffffffffffffffffffffffffffffffffffffff168173ffffffffffffffffffffffffffffffffffffffff167f8be0079c531659141344cd1fd0a4f28419497f9722a3daafe3b4186f6b6457e060405160405180910390a35050565b600081519050919050565b7f4e487b7100000000000000000000000000000000000000000000000000000000600052604160045260246000fd5b7f4e487b7100000000000000000000000000000000000000000000000000000000600052602260045260246000fd5b600060028204905060018216806200028257607f821691505b6020821081036200029857620002976200023a565b5b50919050565b60008190508160005260206000209050919050565b60006020601f8301049050919050565b600082821b905092915050565b600060088302620003027fffffffffffffffffffffffffffffffffffffffffffffffffffffffffffffffff82620002c3565b6200030e8683620002c3565b95508019841693508086168417925050509392505050565b6000819050919050565b6000819050919050565b60006200035b620003556200034f8462000326565b62000330565b62000326565b9050919050565b6000819050919050565b62000377836200033a565b6200038f620003868262000362565b848454620002d0565b825550505050565b600090565b620003a662000397565b620003b38184846200036c565b505050565b5b81811015620003db57620003cf6000826200039c565b600181019050620003b9565b5050565b601f8211156200042a57620003f4816200029e565b620003ff84620002b3565b810160208510156200040f578190505b620004276200041e85620002b3565b830182620003b8565b50505b505050565b600082821c905092915050565b60006200044f600019846008026200042f565b1980831691505092915050565b60006200046a83836200043c565b9150826002028217905092915050565b620004858262000200565b67ffffffffffffffff811115620004a157620004a06200020b565b5b620004ad825462000269565b620004ba828285620003df565b600060209050601f831160018114620004f25760008415620004dd578287015190505b620004e985826200045c565b86555062000559565b601f19841662000502866200029e565b60005b828110156200052c5784890151825560018201915060208501945060208101905062000505565b868310156200054c578489015162000548601f8916826200043c565b8355505b6001600288020188555050505b505050505050565b600073ffffffffffffffffffffffffffffffffffffffff82169050919050565b60006200058e8262000561565b9050919050565b620005a08162000581565b82525050565b6000602082019050620005bd600083018462000595565b92915050565b6135cf80620005d36000396000f3fe608060405234801561001057600080fd5b50600436106101e55760003560e01c806370a082311161010f578063c1e3e679116100a2578063e985e9c511610071578063e985e9c514610612578063f2db851814610642578063f2fde38b1461065e578063fb2e9ffb1461067a576101e5565b8063c1e3e67914610552578063c87b56dd14610582578063ca28a0d0146105b2578063df3d6076146105e2576101e5565b806395d89b41116100de57806395d89b41146104cc578063a22cb465146104ea578063a5cd761f14610506578063b88d4fde14610536576101e5565b806370a0823114610444578063715018a614610474578063866a285c1461047e5780638da5cb5b146104ae576101e5565b806336edc0431161018757806356752a881161015657806356752a88146103985780635ae9a7bc146103c85780636352211e146103e45780636e9e48ef14610414576101e5565b806336edc043146103005780633efcdc461461031c57806342842e0e1461034c578063513f99e714610368576101e5565b8063095ea7b3116101c3578063095ea7b3146102685780631c91aafe146102845780631e7663bc146102b457806323b872dd146102e4576101e5565b806301ffc9a7146101ea57806306fdde031461021a578063081812fc14610238575b600080fd5b61020460048036038101906101ff91906125a4565b6106aa565b60405161021191906125ec565b60405180910390f35b61022261070b565b60405161022f9190612697565b60405180910390f35b610252600480360381019061024d91906126ef565b61079d565b60405161025f919061275d565b60405180910390f35b610282600480360381019061027d91906127a4565b6107b9565b005b61029e60048036038101906102999190612919565b6107cf565b6040516102ab9190612697565b60405180910390f35b6102ce60048036038101906102c99190612919565b61087f565b6040516102db9190612971565b60405180910390f35b6102fe60048036038101906102f9919061298c565b6108a7565b005b61031a600480360381019061031591906129df565b6109a9565b005b610336600480360381019061033191906126ef565b610c4a565b6040516103439190612697565b60405180910390f35b6103666004803603810190610361919061298c565b610cea565b005b610382600480360381019061037d91906126ef565b610d0a565b60405161038f91906125ec565b60405180910390f35b6103b260048036038101906103ad9190612919565b610d2a565b6040516103bf91906125ec565b60405180910390f35b6103e260048036038101906103dd9190612a6a565b610d5f565b005b6103fe60048036038101906103f991906126ef565b610e04565b60405161040b919061275d565b60405180910390f35b61042e600480360381019061042991906126ef565b610e16565b60405161043b919061275d565b60405180910390f35b61045e60048036038101906104599190612ae2565b610e49565b60405161046b9190612971565b60405180910390f35b61047c610f03565b005b61049860048036038101906104939190612919565b610f17565b6040516104a591906125ec565b60405180910390f35b6104b6610f4d565b6040516104c3919061275d565b60405180910390f35b6104d4610f77565b6040516104e19190612697565b60405180910390f35b61050460048036038101906104ff9190612b3b565b611009565b005b610520600480360381019061051b91906126ef565b61101f565b60405161052d919061275d565b60405180910390f35b610550600480360381019061054b9190612c1c565b61105c565b005b61056c60048036038101906105679190612919565b611081565b6040516105799190612697565b60405180910390f35b61059c600480360381019061059791906126ef565b611137565b6040516105a99190612697565b60405180910390f35b6105cc60048036038101906105c791906126ef565b61124a565b6040516105d991906125ec565b60405180910390f35b6105fc60048036038101906105f791906126ef565b611274565b6040516106099190612697565b60405180910390f35b61062c60048036038101906106279190612c9f565b611319565b60405161063991906125ec565b60405180910390f35b61065c60048036038101906106579190612dc5565b6113ad565b005b61067860048036038101906106739190612ae2565b611455565b005b610694600480360381019061068f9190612919565b6114db565b6040516106a19190612971565b60405180910390f35b6000634906490660e01b7bffffffffffffffffffffffffffffffffffffffffffffffffffffffff1916827bffffffffffffffffffffffffffffffffffffffffffffffffffffffff19161480610704575061070382611509565b5b9050919050565b60606000805461071a90612e6c565b80601f016020809104026020016040519081016040528092919081815260200182805461074690612e6c565b80156107935780601f1061076857610100808354040283529160200191610793565b820191906000526020600020905b81548152906001019060200180831161077657829003601f168201915b5050505050905090565b60006107a8826115eb565b506107b282611673565b9050919050565b6107cb82826107c66116b0565b6116b8565b5050565b6060600a826040516107e19190612ed9565b908152602001604051809103902080546107fa90612e6c565b80601f016020809104026020016040519081016040528092919081815260200182805461082690612e6c565b80156108735780601f1061084857610100808354040283529160200191610873565b820191906000526020600020905b81548152906001019060200180831161085657829003601f168201915b50505050509050919050565b6000600c826040516108919190612ed9565b9081526020016040518091039020549050919050565b600073ffffffffffffffffffffffffffffffffffffffff168273ffffffffffffffffffffffffffffffffffffffff16036109195760006040517f64a0ae92000000000000000000000000000000000000000000000000000000008152600401610910919061275d565b60405180910390fd5b600061092d83836109286116b0565b6116ca565b90508373ffffffffffffffffffffffffffffffffffffffff168173ffffffffffffffffffffffffffffffffffffffff16146109a3578382826040517f64283d7b00000000000000000000000000000000000000000000000000000000815260040161099a93929190612ef0565b60405180910390fd5b50505050565b6000600a836040516109bb9190612ed9565b908152602001604051809103902080546109d490612e6c565b80601f0160208091040260200160405190810160405280929190818152602001828054610a0090612e6c565b8015610a4d5780601f10610a2257610100808354040283529160200191610a4d565b820191906000526020600020905b815481529060010190602001808311610a3057829003601f168201915b505050505090506000815111610a98576040517f08c379a0000000000000000000000000000000000000000000000000000000008152600401610a8f90612f73565b60405180910390fd5b600981604051610aa89190612ed9565b908152602001604051809103902060009054906101000a900460ff1615610b04576040517f08c379a0000000000000000000000000000000000000000000000000000000008152600401610afb90612fdf565b60405180910390fd5b600160086000828254610b17919061302e565b9250508190555060006008549050610b2f85826118e4565b610b3981846119dd565b6001600983604051610b4b9190612ed9565b908152602001604051809103902060006101000a81548160ff02191690831515021790555081600b60008381526020019081526020016000209081610b90919061320e565b5080600c83604051610ba29190612ed9565b90815260200160405180910390208190555084600d600083815260200190815260200160002060006101000a81548173ffffffffffffffffffffffffffffffffffffffff021916908373ffffffffffffffffffffffffffffffffffffffff1602179055507f7df6e73d2a51c2a54a5bd6a4141448d711cb7d86bdfd664cf868007906bbf66a81338487604051610c3b94939291906132e0565b60405180910390a15050505050565b600b6020528060005260406000206000915090508054610c6990612e6c565b80601f0160208091040260200160405190810160405280929190818152602001828054610c9590612e6c565b8015610ce25780601f10610cb757610100808354040283529160200191610ce2565b820191906000526020600020905b815481529060010190602001808311610cc557829003601f168201915b505050505081565b610d058383836040518060200160405280600081525061105c565b505050565b600e6020528060005260406000206000915054906101000a900460ff1681565b6000600982604051610d3c9190612ed9565b908152602001604051809103902060009054906101000a900460ff169050919050565b610d67611a39565b6000600a83604051610d799190612ed9565b90815260200160405180910390208054610d9290612e6c565b905014610dd4576040517f08c379a0000000000000000000000000000000000000000000000000000000008152600401610dcb9061337f565b60405180910390fd5b80600a83604051610de59190612ed9565b90815260200160405180910390209081610dff919061320e565b505050565b6000610e0f826115eb565b9050919050565b600d6020528060005260406000206000915054906101000a900473ffffffffffffffffffffffffffffffffffffffff1681565b60008073ffffffffffffffffffffffffffffffffffffffff168273ffffffffffffffffffffffffffffffffffffffff1603610ebc5760006040517f89c62b64000000000000000000000000000000000000000000000000000000008152600401610eb3919061275d565b60405180910390fd5b600360008373ffffffffffffffffffffffffffffffffffffffff1673ffffffffffffffffffffffffffffffffffffffff168152602001908152602001600020549050919050565b610f0b611a39565b610f156000611ac0565b565b6009818051602081018201805184825260208301602085012081835280955050505050506000915054906101000a900460ff1681565b6000600760009054906101000a900473ffffffffffffffffffffffffffffffffffffffff16905090565b606060018054610f8690612e6c565b80601f0160208091040260200160405190810160405280929190818152602001828054610fb290612e6c565b8015610fff5780601f10610fd457610100808354040283529160200191610fff565b820191906000526020600020905b815481529060010190602001808311610fe257829003601f168201915b5050505050905090565b61101b6110146116b0565b8383611b86565b5050565b6000600d600083815260200190815260200160002060009054906101000a900473ffffffffffffffffffffffffffffffffffffffff169050919050565b6110678484846108a7565b61107b6110726116b0565b85858585611cf5565b50505050565b600a8180516020810182018051848252602083016020850120818352809550505050505060009150905080546110b690612e6c565b80601f01602080910402602001604051908101604052809291908181526020018280546110e290612e6c565b801561112f5780601f106111045761010080835404028352916020019161112f565b820191906000526020600020905b81548152906001019060200180831161111257829003601f168201915b505050505081565b6060611142826115eb565b50600060066000848152602001908152602001600020805461116390612e6c565b80601f016020809104026020016040519081016040528092919081815260200182805461118f90612e6c565b80156111dc5780601f106111b1576101008083540402835291602001916111dc565b820191906000526020600020905b8154815290600101906020018083116111bf57829003601f168201915b5050505050905060006111ed611ea6565b90506000815103611202578192505050611245565b60008251111561123757808260405160200161121f92919061339f565b60405160208183030381529060405292505050611245565b61124084611ebd565b925050505b919050565b6000600e600083815260200190815260200160002060009054906101000a900460ff169050919050565b6060600b6000838152602001908152602001600020805461129490612e6c565b80601f01602080910402602001604051908101604052809291908181526020018280546112c090612e6c565b801561130d5780601f106112e25761010080835404028352916020019161130d565b820191906000526020600020905b8154815290600101906020018083116112f057829003601f168201915b50505050509050919050565b6000600560008473ffffffffffffffffffffffffffffffffffffffff1673ffffffffffffffffffffffffffffffffffffffff16815260200190815260200160002060008373ffffffffffffffffffffffffffffffffffffffff1673ffffffffffffffffffffffffffffffffffffffff16815260200190815260200160002060009054906101000a900460ff16905092915050565b6113b5611a39565b80518251146113f9576040517f08c379a00000000000000000000000000000000000000000000000000000000081526004016113f09061340f565b60405180910390fd5b60005b82518110156114505761144383828151811061141b5761141a61342f565b5b60200260200101518383815181106114365761143561342f565b5b6020026020010151610d5f565b80806001019150506113fc565b505050565b61145d611a39565b600073ffffffffffffffffffffffffffffffffffffffff168173ffffffffffffffffffffffffffffffffffffffff16036114cf5760006040517f1e4fbdf70000000000000000000000000000000000000000000000000000000081526004016114c6919061275d565b60405180910390fd5b6114d881611ac0565b50565b600c818051602081018201805184825260208301602085012081835280955050505050506000915090505481565b60007f80ac58cd000000000000000000000000000000000000000000000000000000007bffffffffffffffffffffffffffffffffffffffffffffffffffffffff1916827bffffffffffffffffffffffffffffffffffffffffffffffffffffffff191614806115d457507f5b5e139f000000000000000000000000000000000000000000000000000000007bffffffffffffffffffffffffffffffffffffffffffffffffffffffff1916827bffffffffffffffffffffffffffffffffffffffffffffffffffffffff1916145b806115e457506115e382611f26565b5b9050919050565b6000806115f783611f90565b9050600073ffffffffffffffffffffffffffffffffffffffff168173ffffffffffffffffffffffffffffffffffffffff160361166a57826040517f7e2732890000000000000000000000000000000000000000000000000000000081526004016116619190612971565b60405180910390fd5b80915050919050565b60006004600083815260200190815260200160002060009054906101000a900473ffffffffffffffffffffffffffffffffffffffff169050919050565b600033905090565b6116c58383836001611fcd565b505050565b6000806116d684611f90565b9050600073ffffffffffffffffffffffffffffffffffffffff168373ffffffffffffffffffffffffffffffffffffffff161461171857611717818486612192565b5b600073ffffffffffffffffffffffffffffffffffffffff168173ffffffffffffffffffffffffffffffffffffffff16146117a95761175a600085600080611fcd565b6001600360008373ffffffffffffffffffffffffffffffffffffffff1673ffffffffffffffffffffffffffffffffffffffff168152602001908152602001600020600082825403925050819055505b600073ffffffffffffffffffffffffffffffffffffffff168573ffffffffffffffffffffffffffffffffffffffff161461182c576001600360008773ffffffffffffffffffffffffffffffffffffffff1673ffffffffffffffffffffffffffffffffffffffff168152602001908152602001600020600082825401925050819055505b846002600086815260200190815260200160002060006101000a81548173ffffffffffffffffffffffffffffffffffffffff021916908373ffffffffffffffffffffffffffffffffffffffff160217905550838573ffffffffffffffffffffffffffffffffffffffff168273ffffffffffffffffffffffffffffffffffffffff167fddf252ad1be2c89b69c2b068fc378daa952ba7f163c4a11628f55a4df523b3ef60405160405180910390a4809150509392505050565b600073ffffffffffffffffffffffffffffffffffffffff168273ffffffffffffffffffffffffffffffffffffffff16036119565760006040517f64a0ae9200000000000000000000000000000000000000000000000000000000815260040161194d919061275d565b60405180910390fd5b6000611964838360006116ca565b9050600073ffffffffffffffffffffffffffffffffffffffff168173ffffffffffffffffffffffffffffffffffffffff16146119d85760006040517f73c6ac6e0000000000000000000000000000000000000000000000000000000081526004016119cf919061275d565b60405180910390fd5b505050565b806006600084815260200190815260200160002090816119fd919061320e565b507ff8e1a15aba9398e019f0b49df1a4fde98ee17ae345cb5f6b5e2c27f5033e8ce782604051611a2d9190612971565b60405180910390a15050565b611a416116b0565b73ffffffffffffffffffffffffffffffffffffffff16611a5f610f4d565b73ffffffffffffffffffffffffffffffffffffffff1614611abe57611a826116b0565b6040517f118cdaa7000000000000000000000000000000000000000000000000000000008152600401611ab5919061275d565b60405180910390fd5b565b6000600760009054906101000a900473ffffffffffffffffffffffffffffffffffffffff16905081600760006101000a81548173ffffffffffffffffffffffffffffffffffffffff021916908373ffffffffffffffffffffffffffffffffffffffff1602179055508173ffffffffffffffffffffffffffffffffffffffff168173ffffffffffffffffffffffffffffffffffffffff167f8be0079c531659141344cd1fd0a4f28419497f9722a3daafe3b4186f6b6457e060405160405180910390a35050565b600073ffffffffffffffffffffffffffffffffffffffff168273ffffffffffffffffffffffffffffffffffffffff1603611bf757816040517f5b08ba18000000000000000000000000000000000000000000000000000000008152600401611bee919061275d565b60405180910390fd5b80600560008573ffffffffffffffffffffffffffffffffffffffff1673ffffffffffffffffffffffffffffffffffffffff16815260200190815260200160002060008473ffffffffffffffffffffffffffffffffffffffff1673ffffffffffffffffffffffffffffffffffffffff16815260200190815260200160002060006101000a81548160ff0219169083151502179055508173ffffffffffffffffffffffffffffffffffffffff168373ffffffffffffffffffffffffffffffffffffffff167f17307eab39ab6107e8899845ad3d59bd9653f200f220920489ca2b5937696c3183604051611ce891906125ec565b60405180910390a3505050565b60008373ffffffffffffffffffffffffffffffffffffffff163b1115611e9f578273ffffffffffffffffffffffffffffffffffffffff1663150b7a02868685856040518563ffffffff1660e01b8152600401611d5494939291906134b3565b6020604051808303816000875af1925050508015611d9057506040513d601f19601f82011682018060405250810190611d8d9190613514565b60015b611e14573d8060008114611dc0576040519150601f19603f3d011682016040523d82523d6000602084013e611dc5565b606091505b506000815103611e0c57836040517f64a0ae92000000000000000000000000000000000000000000000000000000008152600401611e03919061275d565b60405180910390fd5b805181602001fd5b63150b7a0260e01b7bffffffffffffffffffffffffffffffffffffffffffffffffffffffff1916817bffffffffffffffffffffffffffffffffffffffffffffffffffffffff191614611e9d57836040517f64a0ae92000000000000000000000000000000000000000000000000000000008152600401611e94919061275d565b60405180910390fd5b505b5050505050565b606060405180602001604052806000815250905090565b6060611ec8826115eb565b506000611ed3611ea6565b90506000815111611ef35760405180602001604052806000815250611f1e565b80611efd84612256565b604051602001611f0e92919061339f565b6040516020818303038152906040525b915050919050565b60007f01ffc9a7000000000000000000000000000000000000000000000000000000007bffffffffffffffffffffffffffffffffffffffffffffffffffffffff1916827bffffffffffffffffffffffffffffffffffffffffffffffffffffffff1916149050919050565b60006002600083815260200190815260200160002060009054906101000a900473ffffffffffffffffffffffffffffffffffffffff169050919050565b80806120065750600073ffffffffffffffffffffffffffffffffffffffff168273ffffffffffffffffffffffffffffffffffffffff1614155b1561213a576000612016846115eb565b9050600073ffffffffffffffffffffffffffffffffffffffff168373ffffffffffffffffffffffffffffffffffffffff161415801561208157508273ffffffffffffffffffffffffffffffffffffffff168173ffffffffffffffffffffffffffffffffffffffff1614155b801561209457506120928184611319565b155b156120d657826040517fa9fbf51f0000000000000000000000000000000000000000000000000000000081526004016120cd919061275d565b60405180910390fd5b811561213857838573ffffffffffffffffffffffffffffffffffffffff168273ffffffffffffffffffffffffffffffffffffffff167f8c5be1e5ebec7d5bd14f71427d1e84f3dd0314c0f7b2291e5b200ac8c7c3b92560405160405180910390a45b505b836004600085815260200190815260200160002060006101000a81548173ffffffffffffffffffffffffffffffffffffffff021916908373ffffffffffffffffffffffffffffffffffffffff16021790555050505050565b61219d838383612324565b61225157600073ffffffffffffffffffffffffffffffffffffffff168373ffffffffffffffffffffffffffffffffffffffff160361221257806040517f7e2732890000000000000000000000000000000000000000000000000000000081526004016122099190612971565b60405180910390fd5b81816040517f177e802f000000000000000000000000000000000000000000000000000000008152600401612248929190613541565b60405180910390fd5b505050565b606060006001612265846123e5565b01905060008167ffffffffffffffff811115612284576122836127ee565b5b6040519080825280601f01601f1916602001820160405280156122b65781602001600182028036833780820191505090505b509050600082602001820190505b600115612319578080600190039150507f3031323334353637383961626364656600000000000000000000000000000000600a86061a8153600a858161230d5761230c61356a565b5b049450600085036122c4575b819350505050919050565b60008073ffffffffffffffffffffffffffffffffffffffff168373ffffffffffffffffffffffffffffffffffffffff16141580156123dc57508273ffffffffffffffffffffffffffffffffffffffff168473ffffffffffffffffffffffffffffffffffffffff16148061239d575061239c8484611319565b5b806123db57508273ffffffffffffffffffffffffffffffffffffffff166123c383611673565b73ffffffffffffffffffffffffffffffffffffffff16145b5b90509392505050565b600080600090507a184f03e93ff9f4daa797ed6e38ed64bf6a1f0100000000000000008310612443577a184f03e93ff9f4daa797ed6e38ed64bf6a1f01000000000000000083816124395761243861356a565b5b0492506040810190505b6d04ee2d6d415b85acef81000000008310612480576d04ee2d6d415b85acef810000000083816124765761247561356a565b5b0492506020810190505b662386f26fc1000083106124af57662386f26fc1000083816124a5576124a461356a565b5b0492506010810190505b6305f5e10083106124d8576305f5e10083816124ce576124cd61356a565b5b0492506008810190505b61271083106124fd5761271083816124f3576124f261356a565b5b0492506004810190505b6064831061252057606483816125165761251561356a565b5b0492506002810190505b600a831061252f576001810190505b80915050919050565b6000604051905090565b600080fd5b600080fd5b60007fffffffff0000000000000000000000000000000000000000000000000000000082169050919050565b6125818161254c565b811461258c57600080fd5b50565b60008135905061259e81612578565b92915050565b6000602082840312156125ba576125b9612542565b5b60006125c88482850161258f565b91505092915050565b60008115159050919050565b6125e6816125d1565b82525050565b600060208201905061260160008301846125dd565b92915050565b600081519050919050565b600082825260208201905092915050565b60005b83811015612641578082015181840152602081019050612626565b60008484015250505050565b6000601f19601f8301169050919050565b600061266982612607565b6126738185612612565b9350612683818560208601612623565b61268c8161264d565b840191505092915050565b600060208201905081810360008301526126b1818461265e565b905092915050565b6000819050919050565b6126cc816126b9565b81146126d757600080fd5b50565b6000813590506126e9816126c3565b92915050565b60006020828403121561270557612704612542565b5b6000612713848285016126da565b91505092915050565b600073ffffffffffffffffffffffffffffffffffffffff82169050919050565b60006127478261271c565b9050919050565b6127578161273c565b82525050565b6000602082019050612772600083018461274e565b92915050565b6127818161273c565b811461278c57600080fd5b50565b60008135905061279e81612778565b92915050565b600080604083850312156127bb576127ba612542565b5b60006127c98582860161278f565b92505060206127da858286016126da565b9150509250929050565b600080fd5b600080fd5b7f4e487b7100000000000000000000000000000000000000000000000000000000600052604160045260246000fd5b6128268261264d565b810181811067ffffffffffffffff82111715612845576128446127ee565b5b80604052505050565b6000612858612538565b9050612864828261281d565b919050565b600067ffffffffffffffff821115612884576128836127ee565b5b61288d8261264d565b9050602081019050919050565b82818337600083830152505050565b60006128bc6128b784612869565b61284e565b9050828152602081018484840111156128d8576128d76127e9565b5b6128e384828561289a565b509392505050565b600082601f830112612900576128ff6127e4565b5b81356129108482602086016128a9565b91505092915050565b60006020828403121561292f5761292e612542565b5b600082013567ffffffffffffffff81111561294d5761294c612547565b5b612959848285016128eb565b91505092915050565b61296b816126b9565b82525050565b60006020820190506129866000830184612962565b92915050565b6000806000606084860312156129a5576129a4612542565b5b60006129b38682870161278f565b93505060206129c48682870161278f565b92505060406129d5868287016126da565b9150509250925092565b6000806000606084860312156129f8576129f7612542565b5b6000612a068682870161278f565b935050602084013567ffffffffffffffff811115612a2757612a26612547565b5b612a33868287016128eb565b925050604084013567ffffffffffffffff811115612a5457612a53612547565b5b612a60868287016128eb565b9150509250925092565b60008060408385031215612a8157612a80612542565b5b600083013567ffffffffffffffff811115612a9f57612a9e612547565b5b612aab858286016128eb565b925050602083013567ffffffffffffffff811115612acc57612acb612547565b5b612ad8858286016128eb565b9150509250929050565b600060208284031215612af857612af7612542565b5b6000612b068482850161278f565b91505092915050565b612b18816125d1565b8114612b2357600080fd5b50565b600081359050612b3581612b0f565b92915050565b60008060408385031215612b5257612b51612542565b5b6000612b608582860161278f565b9250506020612b7185828601612b26565b9150509250929050565b600067ffffffffffffffff821115612b9657612b956127ee565b5b612b9f8261264d565b9050602081019050919050565b6000612bbf612bba84612b7b565b61284e565b905082815260208101848484011115612bdb57612bda6127e9565b5b612be684828561289a565b509392505050565b600082601f830112612c0357612c026127e4565b5b8135612c13848260208601612bac565b91505092915050565b60008060008060808587031215612c3657612c35612542565b5b6000612c448782880161278f565b9450506020612c558782880161278f565b9350506040612c66878288016126da565b925050606085013567ffffffffffffffff811115612c8757612c86612547565b5b612c9387828801612bee565b91505092959194509250565b60008060408385031215612cb657612cb5612542565b5b6000612cc48582860161278f565b9250506020612cd58582860161278f565b9150509250929050565b600067ffffffffffffffff821115612cfa57612cf96127ee565b5b602082029050602081019050919050565b600080fd5b6000612d23612d1e84612cdf565b61284e565b90508083825260208201905060208402830185811115612d4657612d45612d0b565b5b835b81811015612d8d57803567ffffffffffffffff811115612d6b57612d6a6127e4565b5b808601612d7889826128eb565b85526020850194505050602081019050612d48565b5050509392505050565b600082601f830112612dac57612dab6127e4565b5b8135612dbc848260208601612d10565b91505092915050565b60008060408385031215612ddc57612ddb612542565b5b600083013567ffffffffffffffff811115612dfa57612df9612547565b5b612e0685828601612d97565b925050602083013567ffffffffffffffff811115612e2757612e26612547565b5b612e3385828601612d97565b9150509250929050565b7f4e487b7100000000000000000000000000000000000000000000000000000000600052602260045260246000fd5b60006002820490506001821680612e8457607f821691505b602082108103612e9757612e96612e3d565b5b50919050565b600081905092915050565b6000612eb382612607565b612ebd8185612e9d565b9350612ecd818560208601612623565b80840191505092915050565b6000612ee58284612ea8565b915081905092915050565b6000606082019050612f05600083018661274e565b612f126020830185612962565b612f1f604083018461274e565b949350505050565b7f496e76616c696420515220636f64650000000000000000000000000000000000600082015250565b6000612f5d600f83612612565b9150612f6882612f27565b602082019050919050565b60006020820190508181036000830152612f8c81612f50565b9050919050565b7f47616d6f736120616c726561647920636c61696d656400000000000000000000600082015250565b6000612fc9601683612612565b9150612fd482612f93565b602082019050919050565b60006020820190508181036000830152612ff881612fbc565b9050919050565b7f4e487b7100000000000000000000000000000000000000000000000000000000600052601160045260246000fd5b6000613039826126b9565b9150613044836126b9565b925082820190508082111561305c5761305b612fff565b5b92915050565b60008190508160005260206000209050919050565b60006020601f8301049050919050565b600082821b905092915050565b6000600883026130c47fffffffffffffffffffffffffffffffffffffffffffffffffffffffffffffffff82613087565b6130ce8683613087565b95508019841693508086168417925050509392505050565b6000819050919050565b600061310b613106613101846126b9565b6130e6565b6126b9565b9050919050565b6000819050919050565b613125836130f0565b61313961313182613112565b848454613094565b825550505050565b600090565b61314e613141565b61315981848461311c565b505050565b5b8181101561317d57613172600082613146565b60018101905061315f565b5050565b601f8211156131c25761319381613062565b61319c84613077565b810160208510156131ab578190505b6131bf6131b785613077565b83018261315e565b50505b505050565b600082821c905092915050565b60006131e5600019846008026131c7565b1980831691505092915050565b60006131fe83836131d4565b9150826002028217905092915050565b61321782612607565b67ffffffffffffffff8111156132305761322f6127ee565b5b61323a8254612e6c565b613245828285613181565b600060209050601f8311600181146132785760008415613266578287015190505b61327085826131f2565b8655506132d8565b601f19841661328686613062565b60005b828110156132ae57848901518255600182019150602085019450602081019050613289565b868310156132cb57848901516132c7601f8916826131d4565b8355505b6001600288020188555050505b505050505050565b60006080820190506132f56000830187612962565b613302602083018661274e565b8181036040830152613314818561265e565b90508181036060830152613328818461265e565b905095945050505050565b7f515220636f646520616c72656164792072656769737465726564000000000000600082015250565b6000613369601a83612612565b915061337482613333565b602082019050919050565b600060208201905081810360008301526133988161335c565b9050919050565b60006133ab8285612ea8565b91506133b78284612ea8565b91508190509392505050565b7f417272617973206d757374206265207468652073616d65206c656e6774680000600082015250565b60006133f9601e83612612565b9150613404826133c3565b602082019050919050565b60006020820190508181036000830152613428816133ec565b9050919050565b7f4e487b7100000000000000000000000000000000000000000000000000000000600052603260045260246000fd5b600081519050919050565b600082825260208201905092915050565b60006134858261345e565b61348f8185613469565b935061349f818560208601612623565b6134a88161264d565b840191505092915050565b60006080820190506134c8600083018761274e565b6134d5602083018661274e565b6134e26040830185612962565b81810360608301526134f4818461347a565b905095945050505050565b60008151905061350e81612578565b92915050565b60006020828403121561352a57613529612542565b5b6000613538848285016134ff565b91505092915050565b6000604082019050613556600083018561274e565b6135636020830184612962565b9392505050565b7f4e487b7100000000000000000000000000000000000000000000000000000000600052601260045260246000fdfea2646970667358221220b518789d7f7c897594751766748375093ba39822c45f72ebc86af132cca614a864736f6c63430008160033",
  "linkReferences": {},
  "deployedLinkReferences": {}
}